:020000040800F2
:1000000010050020C1020008792F0008112F0008F8
:10001000712F0008D9030008D93E00080000000035
:100020000000000000000000000000006135000832
:10003000E1030008000000000933000869350008EA
:10004000DB020008DB020008DB020008DB0200081C
:10005000DB020008DB020008DB020008DB0200080C
:10006000DB020008DB020008DB020008DB020008FC
:10007000DB020008DB020008DB020008DB020008EC
:10008000DB020008DB020008DB020008DB020008DC
:10009000DB020008DB020008DB020008DB020008CC
:1000A000DB020008DB020008DB020008DB020008BC
:1000B000DB020008DB020008DB020008DB020008AC
:1000C000DB020008DB020008DB020008DB0200089C
:1000D000DB020008DB020008DB020008DB0200088C
:1000E000DB020008DB020008DB020008DB0200087C
:1000F000DB020008DB020008DB020008DB0200086C
:10010000DB020008DB020008DB020008DB0200085B
:10011000DB020008DB020008DB020008DB0200084B
:10012000DB020008DB020008DB020008DB0200083B
:10013000DB0200080000000000000000DB020008F5
:10014000DB020008DB020008DB020008DB0200081B
:10015000DB020008DB020008DB020008DB0200080B
:10016000DB020008DB020008DB020008DB020008FB
:10017000DB020008DB020008DB020008DB020008EB
:10018000DB020008DB020008DB020008DB020008DB
:10019000DB020008DB020008DB020008DB020008CB
:1001A000DB020008DB020008DB020008DB020008BB
:1001B000DB020008DB020008DB020008DB020008AB
:1001C000DB020008DB020008000000000000000065
:1001D0000000000000000000DB020008000000003A
:1001E000000000000000000000000000000000000F
:1001F0000000000000000000DB020008DB02000835
:10020000DB020008DB02000800000000DB0200083F
:10021000DB020008DB020008DB020008DB0200084A
:10022000DB020008DB020008DB020008000000001F
:10023000DB020008DB02000800000000DB0200080F
:10024000DB020008DB020008DB020008DB0200081A
:10025000DB020008DB020008DB020008DB0200080A
:10026000DB020008DB020008DB020008DB020008FA
:10027000DB020008DB020008DB02000800000000CF
:10028000DB020008DB02000800000000DB020008BF
:1002900000000000DB020008DB020008DB020008AF
:1002A000DB020008DB020008DB020008DFF80CD0EC
:1002B00000F07AF800480047013F000810050020D0
:1002C0000648804706480047FEE7FEE7FEE7FEE7F0
:1002D000FEE7FEE7FEE7FEE7FEE7FEE77136000811
:1002E000AD0200082DE9F05F0546002092469B46CE
:1002F00088460646814640241BE02846414647463C
:10030000224600F041F853465A46C01A914110D394
:1003100011461846224600F028F82D1A67EB01080E
:100320004F4622460120002100F01FF817EB00097C
:100330004E41201EA4F10104DFDC484631462A4626
:100340004346BDE8F09FD2B201E000F8012B491E00
:10035000FBD270470022F6E710B513460A46044662
:100360001946FFF7F0FF204610BD202A04DB203A93
:1003700000FA02F1002070479140C2F1200320FAF8
:1003800003F3194390407047202A04DB203A21FAF6
:1003900002F00021704721FA02F3D040C2F120029E
:1003A00091400843194670471CB509480090094818
:1003B00001900546009C06E0E06840F0010394E8E7
:1003C000070098471034AC42F6D3FFF773FF0000E4
:1003D000D8440008F8440008FEE7000000000000D0
:1003E00070470000000000002DE9F04F83B00F6857
:1003F000002F00F0D98000F126420A2302F1FF7697
:1004000042F20042C5F602024FEAB625904200F1E0
:10041000200208BF09230192092D38BF4FEAB623F5
:1004200000244FF0010E00264FF0000800930AE070
:1004300008F101080F6837FA08F206F1020604F124
:10044000040400F0B1800EFA08FC17EA0C09EFD0A2
:10045000D1F804A0BAF1120F00F29E800EFA0AF74A
:1004600017F0061F00F098800322876802FA06FE44
:10047000CA6827EA0E05B2402A43826042684FEA02
:100480001A154FEA480B6FEA0E0E22EA0C0205FA23
:1004900008F52A4342604AF01005C268122D8D68A3
:1004A00002EA0E0205FA0BF542EA0502C26014D117
:1004B0006FF00302019D02EA580204F01C030F27AB
:1004C00055F802C09F40D1F810A02CEA07070AFA9D
:1004D00003F33B43AB50D1F804A00AF003020368D6
:1004E00002FA0BF203EA0E035FEACA074FF0010EAD
:1004F00042EA030202609BD544F2545340F2084C96
:10050000C5F60203C5F6000C0F254FF0B04A1A6875
:1005100042F002021A601A6802F00202029228F007
:100520000302029B04F00C0352F80C709D40AF4391
:10053000009D05FA03F33B4342F80C3040F2040CF3
:10054000C5F6000CDCF87C204B6842EA0907DD03A5
:1005500058BF22EA09079D03CCF87C70DCF88020A4
:1005600042EA090758BF22EA0907DD02CCF8807089
:10057000DAF8002042EA090758BF22EA09079B027D
:10058000CAF80070DCF8002042EA090758BF22EAE6
:100590000907CCF800704BE70322B34602FA06F7CE
:1005A0006FEA070E77E700BF03B0BDE8F08F0000E9
:1005B000002A08BF090481617047000000000000A4
:1005C00040F20C10C2F2000000687047000000000A
:1005D00040F2040040F20C11C2F20000C2F200012D
:1005E00000780A68104408607047000000000000AE
:1005F00080B5032000F098F801F0BAFF44F21841EA
:1006000044F2A043C5F60201C0F600030A68C2F333
:1006100003229A5C096801F00F0102F01F02595C85
:10062000D04040F21002C2F2000201F01F0120FA95
:1006300001F1116040F20C01C2F2000108600020DB
:1006400000F00AF800281CBF012080BD00F02CF843
:10065000002080BD00000000B0B540F20405C2F2E9
:1006600000052978F1B1044640F20C00C2F2000006
:100670004FF47A72B2FBF1F10068B0FBF1F002F0D6
:1006800093FA0F2C01464FF001000AD8002918BF39
:10069000B0BD4FF0FF300022214600F015F80020D9
:1006A0006C60B0BD0120B0BD81B044F25450C5F6BD
:1006B0000200016841F002010160006800F00200E0
:1006C0000090009801B0704770B54EF60C5C4FF08A
:1006D000FF36CEF2000C00F1604505F56445DCF80C
:1006E0000030C3F3022E8EF00703042B28BF04232F
:1006F000BEF1030406FA03F321EA030100F00F033D
:1007000038BF0024043B0028634406FA04F048BFC5
:1007100003F10C05A14022EA000008430001287003
:1007200070BD0000000000004EF60C514FF6FF03B4
:10073000CEF200010A681A4060F30A2242F080609B
:1007400040F0FD70086070472DE9F04F8FB04BF21C
:10075000044A0023C5F2002A0793CDE90333CDE90B
:100760000533D0F800B0DAF8000000F00303012BE5
:1007700078D10123039300F03003102B77D000F4DD
:100780004073B3F5807F01D10123059300F4A023CA
:1007900040F2010EB3F5803FC0F2001E70D183031A
:1007A000734658BF4FF00113069300F0A063B3F1F6
:1007B000807F6AD0DAF8040000F00303012B70D1C7
:1007C0000223039300F03003102B6ED000F440732B
:1007D000B3F5807F01D10223059300F4A02340F2FA
:1007E000020CB3F5803FC0F2010C05D183036346D0
:1007F00048BF0EF10103069300F0A063B3F1807FC0
:1008000005D18001604648BF0EF101000790002429
:100810000D94CDE90B44CDE909445AF8040C4FF48A
:100820000073DAF80060C00704BF40F22223C0F270
:100830000443F00705D086EA0300800701D40124B1
:100840000994F0063AD586EA0300800636D44FF0C4
:100850000108CDF8288006F44070B0F5407F34D010
:1008600035E000BF00F03003102B7FF488AF012388
:10087000049300F44073B3F5807F3FF485AF85E7C0
:1008800000F0A063B3F1807F94D18001704658BF1F
:100890004FF001100790DAF8040000F00303012B79
:1008A0008ED000F03003102B90D10223049300F47B
:1008B0004073B3F5807F8ED08FE700BF4FF0000804
:1008C00006F44070B0F5407F01D101200B90F00399
:1008D00001910DD586EA0300400309D47146B003A7
:1008E00058BF4FF001110C91F00113D503E000BF88
:1008F0000021F0010ED586EA030040010AD47246B9
:10090000B00158BF4FF001120D92DAF80400C6078B
:100910000BD004E00022DAF80400C60705D080EA14
:100920000306B60701D402240994C60607D580EA57
:100930000306B60603D44FF00208CDF8288000F471
:100940004076B6F5407F01D102260B9645F20005B0
:10095000C603C5F2002509D580EA0306760305D44F
:100960006146870348BF0EF101010C91C60109D50C
:1009700043405B0106D4800148BF0EF1010C624682
:10098000CDF834C00092BBEB05002B6818BF0120E6
:10099000DB07ABEB050303D1AC46002606E000BF46
:1009A0002E68AC4626F001062E6001264AF20007AA
:1009B000C146C5F200273D68ED07B3FA83F503D1C0
:1009C0000296B84607E000BF3B68B84623F0010333
:1009D0003B600236029600EB400003AB6D0903EB6F
:1009E000C00086680AEB860656F804EC2EF4807781
:1009F00046F8047C5AF8047CFF0729D10468C646EF
:100A0000002C55D00AEB840757F8046C26F0010639
:100A100047F8046C44683CB10AEB840757F8046C4F
:100A200026F0100647F8046CC4683CB10127A743C0
:100A30005AF8276026F480364AF827600069B8B370
:100A4000012727EA00005AF8207027F080772DE070
:100A50005AF8040CE345C64620F001004AF8040C9D
:100A600026D10AEB8400B9F1000F50F8047C47F05E
:100A7000020740F8047C07D00AEB890050F8047C98
:100A800047F0200740F8047C39B1012088435AF828
:100A9000207047F480274AF82070009840B1012068
:100AA000009988435AF8207047F080674AF8207010
:100AB00005EB4500019903EBC00453F83000D1E980
:100AC00000368342656813D1AE422B461FD1CB68F6
:100AD000E768BB421AD10B692769BB42334616D17E
:100AE0005AF8040C40F001004AF8040C3FE000BF43
:100AF000AE4233460BD08B68A768BB4204D0CB68AC
:100B0000E768BB4240F014812B4600E033460AEB15
:100B1000800050F8047C27F0010740F8047C3BB1CA
:100B20000AEB830050F8043C23F0100340F8043C27
:100B3000D4E902300AEB830353F8047C27F480776E
:100B400043F8047C40B1012323EA00005AF8203026
:100B500023F480334AF82030206940B1012323EA8E
:100B600000005AF8203023F080734AF8203088685B
:100B70004FF48073E3450AEB800050F8047C18BF03
:100B80004FF4407327F440773B4440F8043C4869F5
:100B90005AF8043C471EC3F307439F420BD9002772
:100BA0005AF8043CCFF6FF7723F47F0307EB0040AD
:100BB00018434AF8040C5AF8043C08680138DB076B
:100BC0005AF82070029E27F0030327D10127E3453E
:100BD00018BF03273B434AF82030486860B10AEB4E
:100BE00080001023E34550F8047C18BF302327F021
:100BF00020073B4340F8043CC868C30326D4A8B38D
:100C00000123E34523EA00004FF080735AF8207077
:100C100027F0E06718BF4FF0A06324E043F0010322
:100C20004AF82030486840B10AEB8000012750F8AC
:100C3000043C67F3051340F8043CC868C30329D497
:100C4000A8B34FF080736FF0E06427E00123E34521
:100C500023EA00004FF480335AF8207018BF4FF495
:100C6000A02327F4E0273B444AF820300869C10359
:100C70002AD4002842D00121E34521EA00004FF0A8
:100C800040715AF8203023F0E06318BF4FF0E06164
:100C900027E000BF4FF480336FF4E024012727EAF8
:100CA00000005AF8207027403B434AF8203008697A
:100CB000C10319D410B30121032321EA00005AF81B
:100CC000201063F31A6117E00121E34521EA0000D7
:100CD0004FF440315AF8203018BF4FF4E02123F48C
:100CE000E023194408E000BF0121032321EA0000AA
:100CF0005AF8201063F312414AF82010F00705D18A
:100D0000B0070BD400200FB0BDE8F08FDCF8000076
:100D100040F00100CCF80000B007F3D5DEF8000089
:100D200040F00100CEF8000000200FB0BDE8F08FC9
:100D30000B692769BB422B467FF419AFE7E6000039
:100D4000F0B581B015460F460446FFF739FC616DDA
:100D50000646242912D0142906D0022909D1E068B8
:100D6000B0F1806F05D00EE0386820F00100022855
:100D700009D01020A065012001B0F0BD386840F016
:100D800002000328F5D12068016A89060AD40020F0
:100D9000A0652046394602F0F3F8F8B1012001B011
:100DA000F0BD00BF25B3691C12D1016A8906EED5DA
:100DB000016A890644BF016A5FEA8161E7D5016A79
:100DC0008906F2D4E3E700BF2068006A8006DED51A
:100DD000FFF7F6FB801BA842F6D90BE0B86B88B191
:100DE0003868022838D0012830D0C0B339E000BFBD
:100DF000FFF7E6FB4FF400706065A06D40F0010066
:100E0000B8E700BF2168086A80070FD475B3681C73
:100E100016D1086A800709D4086A80075CBF086A8F
:100E20005FEA807002D4086A8007F2D500200222AF
:100E30004A6201B0F0BD00BF2168086A8007F5D49E
:100E4000FFF7BEFB801BA842F6D911E0606D242895
:100E500005D0142004E000BF606D142804D10420E4
:100E60006065002001B0F0BD2420F9E7FFF7A8FB82
:100E70004FF400706065A06D40F00100A06521682E
:100E8000012002224A6201B0F0BD00000000000013
:100E900080B110B5016804460A6822F001020A60B8
:100EA0008A6822F002028A6000F0F6F8002060658D
:100EB00010BD00BF01207047F0B581B00446FFF7B8
:100EC0007FFB002C00F08B8005460020A065616D43
:100ED00011B101B0F0BD00BF204600F0E1F820687C
:100EE00041F28837E7654FF68406D4E903C16369A8
:100EF0008268CFF6E0066FF0FF0E32400026CFF694
:100F0000FF7642EA0C0206EB0146616B0EEB03230F
:100F100032431A43A36B42EA0111E26919431143B8
:100F20008160C168226A21F4E0211143C160216B14
:100F3000E26B42EA01410161216C41610168626832
:100F400021F4F8510EEB022211430160016A890677
:100F500009D500BFFFF734FB401BB84238D82068E2
:100F6000016A8906F6D4C168A268D4E9097621F03D
:100F7000FF01013FA3693943C160022B016821F0E1
:100F8000400141EA02010160D0F80811E26A21F053
:100F9000A04141EA060141EA0201C0F808110168D6
:100FA00041F00101016003D1816841F002018160DB
:100FB000E068B0F1806F05D101206065002001B0CC
:100FC000F0BD00BF02206065002001B0F0BD00BF91
:100FD0004FF400706065A06D40F00100A065012035
:100FE00001B0F0BD00000000F0B581B00D46044630
:100FF000FFF7E6FA616D04291ED106462068E76D09
:10100000016A89061ED4882161652968082908D1EA
:101010006A68C0F8302110224262026842F48012ED
:101020000260026822F00802114341F04051016061
:10103000002001B0F0BD00BF1020A065012001B06C
:10104000F0BD00BFD7B1791C12D1016A8906DAD58B
:10105000016A890644BF016A5FEA8161D3D5016AEA
:101060008906F2D4CFE700BF2068016A8906CAD595
:10107000FFF7A6FA801BB842F6D901E0FFF7A0FA05
:101080004FF400706065A06D40F00100A065012084
:1010900001B0F0BD0000000070470000000000003B
:1010A0002DE9F04186B045F200020068C5F2002249
:1010B000002190420591CDE903110291019103D0E5
:1010C00006B0BDE8F08100BF44F2405040F6004455
:1010D000C5F60200C5F60204A4F5006601AD50F89D
:1010E0000C2C4FF0040842F4001240F80C2C50F87D
:1010F0000C2C092702F400120092009A50F80C2CD4
:1011000042F4804240F80C2C50F80C2C02F480423F
:101110000092009A026842F002020260026802F045
:1011200002020092009A026842F002020260026823
:1011300002F002020092009A026842F00802026085
:10114000026802F008020092009A026842F0080267
:101150000260026802F008020092009A026842F0FF
:1011600010020260026802F010020092009A026807
:1011700042F008020260006800F008000090009849
:101180000220CDE902010320049030462946CDF823
:1011900004800597FFF728F9402001900A20059068
:1011A00030462946FFF720F94FF4006001902046B1
:1011B00029460597FFF718F94FF480500190204613
:1011C00029460597FFF710F904F580602946CDF808
:1011D00004800597FFF708F94FF40050019020466E
:1011E00029460597FFF700F906B0BDE8F081000039
:1011F0002DE9F04381B015460F460446FFF7E0F9AC
:1012000026688046002FB06CD6F8101158D0626D59
:10121000042A5BD1326C01230132E264E26CA264E5
:101220006764326863F31D723260E268B2F1806F06
:1012300004D0D6F8002112F4E06F79D0B06415F133
:10124000010900F08A80002D53D100BF2068006A98
:1012500010F0060F5ED096F850003870606CE16CAC
:10126000471C6764481EE064E06C0028EED12068EB
:10127000016A890711D4002D4CD0B9F1000F17D1A4
:10128000016A890709D4016A89075CBF016A5FEABC
:10129000817102D4016A8907F2D502214162616538
:1012A000002001B0BDE8F0832068016A8907F4D40A
:1012B000FFF786F9A0EB0800A842F5D92CE000BFA3
:1012C0000820A065012001B0BDE8F0831020A065D2
:1012D000012001B0BDE8F083676C96F850003870CB
:1012E000606CE16C471C6764481EE064E06C002899
:1012F000BDD02068006A10F0060FEED1FFF760F94C
:10130000A0EB0800A84207D82068006A10F0060F7A
:10131000F4D0E1E7FFF754F94FF400706065A06D79
:1013200040F00100A065012001B0BDE8F08300BFDE
:10133000C6F8101115F101097FF485AF0DE000BF6B
:1013400096F850003870606CE16C471C6764481E6A
:10135000E064E06C00283FF48AAF2068016A11F075
:10136000060FEDD1016A11F0060F04BF016A11F0FA
:10137000060FE5D1016A11F0060FEFD0E0E700009B
:10138000B0B544F60C05C5F6020529684907296879
:1013900006D401F00701081A18BF0120B0BD00BF34
:1013A00021F0070108432860FFF70AF9044600BF4F
:1013B00055F8080C800407D4FFF702F9001BB0F5BC
:1013C0007A7FF5D90120B0BD0020B0BD000000003B
:1013D00080B501F045F844F2204144F2A042C5F640
:1013E0000201C0F600020968C1F30211515C01F06C
:1013F0001F01C84080BD000080B544F2384EC5F6DC
:10140000020E5EF8103C5EF8101C5EF80C2CC1F366
:10141000053CDEF80410BCF1000F15D0C908D20657
:1014200001EAE2716FF35F3100EE101A03F003017D
:101430000229B8EE400A0DD081B95EF8381C890641
:1014400010D49FED361A1BE000218160C0E9001125
:1014500080BD00BF9FED301A12E000BF9FED2D1A36
:101460000EE000BF5EF8381C49F20002C0F2D03234
:10147000C1F3C10122FA01F101EE101AB8EE411ACE
:10148000DEF800109FED263A6FF35F2102EE101A8E
:10149000DEF80010C1F34621B8EE422A00EE032A1E
:1014A00000EE10CAB7EE003AB8EE400A81EE000A2C
:1014B00032EE031A02EE101AB8EE422A20EE010AAA
:1014C00032EE031A80EE011ABCEEC11A80ED001A4A
:1014D000DEF80010C1F3064101EE101AB8EE411A11
:1014E00031EE031A80EE011ABCEEC11A80ED011A2A
:1014F000DEF80010C1F3066101EE101AB8EE411AD1
:1015000031EE031A80EE010ABCEEC00A10EE101A8A
:10151000816080BD0024744A20BCBE4B0024744C02
:10152000000000390000000080B544F2404EC5F6CE
:10153000020E5EF8183C5EF8181C5EF8142CC1F31D
:10154000055CDEF80410BCF1000F15D0C908D20507
:1015500001EAE2716FF35F3100EE101A03F003014C
:101560000229B8EE400A0DD081B95EF8401C890608
:1015700010D49FED361A1BE000218160C0E90011F4
:1015800080BD00BF9FED301A12E000BF9FED2D1A05
:101590000EE000BF5EF8401C49F20002C0F2D032FB
:1015A000C1F3C10122FA01F101EE101AB8EE411A9D
:1015B000DEF800109FED263A6FF35F2102EE101A5D
:1015C000DEF80010C1F34621B8EE422A00EE032AED
:1015D00000EE10CAB7EE003AB8EE400A81EE000AFB
:1015E00032EE031A02EE101AB8EE422A20EE010A79
:1015F00032EE031A80EE011ABCEEC11A80ED001A19
:10160000DEF80010C1F3064101EE101AB8EE411ADF
:1016100031EE031A80EE011ABCEEC11A80ED011AF8
:10162000DEF80010C1F3066101EE101AB8EE411A9F
:1016300031EE031A80EE010ABCEEC00A10EE101A59
:10164000816080BD0024744A20BCBE4B0024744CD1
:1016500000000039000000002DE9F0470446C07882
:1016600044F22C480007C5F602082DD5A06E4FEABB
:101670003051032946D8DFE801F0030B172000BFE3
:10168000D8F8001041F40031C8F8001015E000BF90
:10169000201D022101F03CFE064668B16078C007BB
:1016A00016D135465BE000BF04F12400022101F0B1
:1016B000C3FE06460028F1D1A06ED8F8241021F40C
:1016C00040110843C8F8240000266078C007E8D01D
:1016D000606D042800F2A8803546DFE800F0232F73
:1016E000190303002F468DB3607880073BD43E4634
:1016F000607840074FD43746E078800740F1E580B6
:1017000062E000BF01266078C007CAD0E0E700BFF2
:1017100004F12400002101F08FFE0546002D2F4624
:10172000E2D113E0D8F80000354640F40030C8F8A4
:101730000000002D2F46D7D108E000BF201D00215A
:1017400001F0E6FD0546002D2F46CDD1D8F8240046
:10175000616D20F0070000250843C8F824003746D3
:1017600060788007C3D5A06D4FEAB010052800F25D
:101770006F80DFE800F0037B61090909D8F80000F9
:1017800040F40030C8F80000002D2E4600F07780AD
:1017900060784007AFD5E06D4FEA702005285FD82C
:1017A000DFE800F0047C500A0A0A00BFD8F8000005
:1017B00040F40030C8F80000002D2F4600F077807C
:1017C000E078800740F18180A06C4FEA3010032858
:1017D00022D8DFE800F0030F190300BF2E46EDB951
:1017E000D8F82000A16C20F0300000250843C8F88C
:1017F00020006AE0D8F8000040F40030C8F800008B
:101800002E465DB9ECE700BF201D022101F080FDEE
:1018100005462E4615B9E3E7012501266078C00686
:1018200040F1978055E000BF0125012760788007CF
:101830003FF599AF5BE700BF04F12400002101F000
:10184000FBFD17E004F12400002101F0F5FD29E083
:1018500001250126607840073FF59DAF4BE700BFAB
:1018600001250127E0788007AED42EE0201D00215D
:1018700001F04EFD0546002D2E467FF489AFD8F8C5
:101880002400A16D20F4E07000250843C8F824006E
:101890003E46607840077FF52EAF7CE7201D002193
:1018A00001F036FD0546002D2F467FF489AFD8F8AC
:1018B0002400E16D20F4606000250843C8F824008E
:1018C0003746E07880073FF57FAF3E466078C00638
:1018D0003FD5206E4FEA3030042800F29380DFE8D5
:1018E00000F01D27130303002F464DB360788006D8
:1018F00033D43E466078400640D4374660780006D0
:1019000040F1D98050E000BF04F12400002101F033
:1019100093FD0546002D2F46E8D111E0D8F80000D0
:1019200040F40030C8F80000002D2F46DED107E05B
:10193000201D002101F0ECFC0546002D2F46D5D1DD
:10194000D8F82400216E20F4E04000250843C8F8B0
:101950002400374660788006CBD5606E4FEA304071
:10196000052800F26180DFE800F0036555030303FA
:10197000002D2E4667D060784006BED5D4F8AC0066
:101980004FEA3070062800F26D80DFE800F0057144
:101990007B050505050000BF002D2F4600F07C806B
:1019A0006078000640F18780606F58B1B0F1005F49
:1019B00010D0B0F1805F1FD1D8F8000040F40030A3
:1019C000C8F800002E466DB1E078C00700F08B80AB
:1019D00075E000BF201D012101F09AFC0546002D95
:1019E0002E46F1D1D8F82400616F20F04050002538
:1019F0000843C8F824005EE001250126E078C0070E
:101A00005DD170E001250127607880063FF5A5AF24
:101A10006FE700BF04F12400012101F00DFD054630
:101A2000002D2E46A7D10EE0012501266078400644
:101A3000A4D462E7201D012101F06AFC0546002DB7
:101A40002E467FF498AFD8F82400616E20F4E02091
:101A500000250843C8F824003E46607840067FF51C
:101A60004CAF8BE701250127607800069CD422E06B
:101A7000201D012101F04CFC0546002D2F467FF46E
:101A80008FAF09E004F12400012101F0D5FC0546E7
:101A9000002D2F467FF484AFD8F82C00D4F8AC107A
:101AA00020F0E04000250843C8F82C003746607855
:101AB00000063FF579AF3E46E078C00713D0606C72
:101AC000032800F2AD80DFE800F00395A10300BF1A
:101AD000A9464DB9D8F82000616C20F0030000251C
:101AE0000843C8F82000B146A078400602D44F460B
:101AF0001AE000BFD8F8D40340F48070C8F8D403CB
:101B0000FEF75EFD064600BFD8F8D403C00507D433
:101B1000FEF756FD801B6428F6D90325032703E052
:101B2000002D2F4600F080802078C00700F0D38081
:101B3000D4F880004FEAF000052800F2B380DFE817
:101B400000F003B7A5030303002D2E4600F0B98073
:101B50002078800700F1C48037462078400700F1E4
:101B6000D3803E462078800600F1E4803746207816
:101B7000400600F1F7803E462078000600F10A8119
:101B800037462068010740F11D81D4F88800B0F580
:101B9000805F09D104F12400022101F04DFC0028EE
:101BA00018BF0127D4F88800D8F8281021F4405134
:101BB0000843C8F828002068C10640F10681D4F81F
:101BC0009C00B0F5807F09D104F12400022101F0CE
:101BD00033FC002818BF0127D4F89C00D8F82C103B
:101BE00021F440710843C8F82C002068000340F13C
:101BF0001381ECE0D8F8000040F40030C8F8000091
:101C0000002DA9467FF470AF64E700BF201D0221BC
:101C100001F07EFB0546002DA9467FF465AF59E72C
:101C200001254FF001095FE7D8F84410D4F8B0005F
:101C3000414011F4407F11D0D8F84410D8F8442026
:101C400042F48032C8F84420D8F8442021F440718E
:101C500022F48032C8F84420C8F84410B0F5807FE0
:101C600040F0B682FEF7ACFC064641F2883A032506
:101C7000032700BFD8F84400800700F1A782FEF7D1
:101C80009FFC801B5045F5D94EE700BF04F12400AE
:101C9000012101F0D1FB0546002D2E467FF458AFFF
:101CA0000FE000BF012501262078800718D453E7F4
:101CB000201D012101F02CFB0546002D2E467FF44E
:101CC00047AFD8F82800D4F8801020F0380000255D
:101CD0000843C8F828003E46207880077FF53CAFCF
:101CE000E06F052800F2CA81DFE810F00600F0017D
:101CF0008C01060006000600002D2F4600F0EF8143
:101D0000207840077FF52DAFD4F89800052800F221
:101D1000BD81DFE810F00700F30183010700070031
:101D2000070000BF002D2E4600F0F18120788006CC
:101D30007FF51CAFD4F894004FEA3070052800F20C
:101D4000AD81DFE810F00700F5017701070007001B
:101D5000070000BF002D2F4600F0F38120784006D9
:101D60007FF509AFD4F8A0004FEAB020052800F2B3
:101D70009D81DFE810F00700F7016B010700070005
:101D8000070000BF002D2E4600F0F58120780006E8
:101D90007FF5F6AED4F8A4004FEA7030052800F2C3
:101DA0008D81DFE810F00700F9015F0107000700EF
:101DB000070000BF002D2F4600F0F78120680107C3
:101DC0003FF5E3AEC1063FF5FAAE000324D5D4F8E3
:101DD000A800B0F5003F0FD0B0F5803F06D0002836
:101DE0004AD1201D002101F093FA04E004F12400FF
:101DF000022101F021FB05462E461DB1A0784007C7
:101E00003FD50DE0D8F82C00D4F8A81020F44030CD
:101E100000250843C8F82C003E46A078400730D57E
:101E2000D4F88C00B0F5401F0BD0B0F5001F0FD0D8
:101E3000B0F5801F70D1D8F8000040F40030C8F829
:101E400000002F466DB1A078C0071ED169E000BF29
:101E500004F12400012101F0EFFA0546002D2F4680
:101E6000F1D1D8F82800D4F88C1020F440100025C7
:101E70000843C8F8280004E001250126A07840079F
:101E8000CED43746A078C0074BD0E06CB0F5803F89
:101E90002AD0D8BBD8F8000040F40030C8F80000C1
:101EA0002E464DB3206881003FD4810348D4C1023F
:101EB0005ED4810266D401056FD4410078D4B0F1BC
:101EC000FF3F40F38680000208D5D8F82800D4F8F8
:101ED000901020F440000843C8F82800002E18BFD6
:101EE00001263046BDE8F087201D022101F010FADE
:101EF0000546002D2E46D5D1D8F82000E16C20F4FF
:101F0000803000250843C8F820000AE0012501269A
:101F100020688100C9D508E001250127A078C00705
:101F2000B3D13E4620688100BFD504F124000221D0
:101F300001F082FA002818BF012620688103B6D577
:101F4000D4F884106FF0010202EB3122022A0AD386
:101F50004FEA31223AB1012A07D1D8F8002042F4E1
:101F60000032C8F80020002D40D00126C102A0D5C3
:101F7000D8F82410A26F21F000411143C8F82410B2
:101F8000810298D5D8F82410E26E21F080711143B7
:101F9000C8F8241001057FF590AFD8F82C10226FF7
:101FA00021F000611143C8F82C1041007FF587AF84
:101FB00058F81C1C21F4004148F81C1CD4F8B4103B
:101FC00058F81C2C114348F81C1CB0F1FF3F3FF798
:101FD0007AAFD8F82010226D21F040511143C8F893
:101FE000201000023FF571AF78E700BFD8F8282035
:101FF00022F440721143C8F82810C1027FF559AF8E
:10200000B6E700BF04F12400012101F015FA0546EE
:10201000002D2F467FF474AE61E000BF04F1240070
:10202000012101F009FA0546002D2E467FF47EAE0F
:102030006DE000BF04F12400022101F0FDF9054626
:10204000002D2F467FF48AAE7BE000BF04F1240010
:10205000022101F0F1F90546002D2E467FF496AEDF
:1020600089E000BF04F12400022101F0E5F90546F2
:10207000002D2F467FF4A2AE97E000BF0125012777
:10208000207840073FF540AE6BE500BF01250126F3
:10209000207880063FF54EAE68E500BF0125012798
:1020A000207840063FF55EAE65E500BF01250126BC
:1020B000207800063FF56EAE62E500BF01250127DE
:1020C000206801077FF57EAE5FE500BF201D01217E
:1020D00001F01EF90546002D2F467FF411AED8F809
:1020E0002800E16F20F0070000250843C8F8280009
:1020F0003746207840077FF534AD05E6201D0121E5
:1021000001F006F90546002D2E467FF40FAED8F8F3
:102110002C00D4F8981020F0070000250843C8F8D8
:102120002C003E46207880067FF520AD02E600BFF9
:10213000201D002101F0ECF80546002D2F467FF40C
:102140000DAED8F82800D4F8941020F0E040002517
:102150000843C8F828003746207840067FF50BADC5
:1021600000E600BF201D002101F0D2F80546002D39
:102170002E467FF40BAED8F82C00D4F8A01020F433
:10218000E05000250843C8F82C003E4620780006A1
:102190007FF5F6ACFEE500BF201D002101F0B8F888
:1021A0000546002D2F467FF409AED8F82C00D4F850
:1021B000A41020F4604000250843C8F82C003746DE
:1021C000206801077FF5FEADDFE400BFD4F8B00062
:1021D0004FF6CF7358F81C2CC0F2FF0300F4407187
:1021E00022F47C5203EA10136FF31F30B1F5407FE5
:1021F00008BF1A43002548F81C2CD8F8441008439F
:10220000C8F84400FFF773BC2DE9F04381B0002803
:1022100000F0208142F200090446C5F20029D9F8F5
:10222000000000F00F0088420DD2D9F8000020F025
:102230000F000843C9F80000D9F8000000F00F00B3
:10224000884240F00781206844F218464207C5F6EC
:1022500002060AD52269336803F070039A4204D952
:10226000336823F070031A43326002070AD56269AB
:10227000736803F070039A4204D9736823F0700303
:102280001A437260C2060AD5A269736803F4E06358
:102290009A4204D9736823F4E0631A437260820699
:1022A0000AD5E269B36803F070039A4204D9B368AF
:1022B00023F070031A43B26010F002020AD0E36800
:1022C000376807F00F07BB4204D9376827F00F07BC
:1022D0003B433360C3073FD0306820F47062D4E9D9
:1022E00001031A433260012856F8182C0AD003283B
:1022F00004D002280AD192030BD4ABE0920108D497
:10230000A8E000BFD20504D4A4E000BF520740F10A
:10231000A180884656F8081C21F00701084346F8BA
:10232000080CFEF74DF9054641F2883756F8080CBF
:10233000616800F03800B0EBC10F09D0FEF740F93A
:10234000401BB842F2D9032001B0BDE8F08300BFC2
:102350002068414600F0020252B1E268336803F09F
:102360000F039A4204D2336823F00F031A433260FA
:10237000D9F8002002F00F028A420CD9D9F80020C7
:1023800022F00F020A43C9F80020D9F8002002F019
:102390000F028A425ED141070AD52169326802F0F4
:1023A0007002914204D2326822F07002114331600F
:1023B00001070AD56169726802F07002914204D285
:1023C000726822F0700211437160C1060AD5A169DA
:1023D000726802F4E062914204D2726822F4E06210
:1023E0001143716080060AD5E069B16801F070019F
:1023F000884204D2B16821F070010843B06000F057
:10240000B7F8316844F2A042C0F60002C1F30321DC
:10241000515C336803F00F0301F01F01D25C20FA16
:1024200001F102F01F0040F21002C2F2000221FA94
:1024300000F0106040F2080040F20C02C2F200000E
:10244000C2F200020068116001B0BDE8F043FEF77F
:1024500003B900BF012001B0BDE8F0830000000017
:1024600080B500F085F844F2184144F2A043C5F667
:102470000201C0F600030A68C2F303229A5C0968ED
:1024800001F00F0102F01F02595C20FA02F201F084
:102490001F0040F21001C2F2000122FA00F00860B1
:1024A00040F20C01C2F200010A6080BD0000000091
:1024B00080B500F05DF844F2184C44F2A043C5F634
:1024C000020CC0F60003DCF80020C2F303229A5C81
:1024D000DCF8001001F00F0102F01F02595CD0403F
:1024E00040F21002C2F2000201F01F0120FA01F1D5
:1024F000116040F20C02C2F200021060DCF804002D
:10250000C0F30210185C00F01F0021FA00F080BD3B
:1025100080B500F02DF844F2184C44F2A043C5F603
:10252000020CC0F60003DCF80020C2F303229A5C20
:10253000DCF8001001F00F0102F01F02595CD040DE
:1025400040F21002C2F2000201F01F0120FA01F174
:10255000116040F20C02C2F200021060DCF80400CC
:10256000C0F30220185C00F01F0021FA00F080BDCB
:1025700044F20041C5F602010869C0F3C200032815
:1025800016D002280ED098BB0868800649F20000D9
:10259000C0F2D03058BF70470968C1F3C101C840CC
:1025A000704700BF47F64000C0F27D10704700BF83
:1025B0008A6A886AC0F3051CC86ABCF1000F4B6BBD
:1025C0001CD000F00100404200EAD3006FF35F30FE
:1025D00000EE100A02F003000228B8EE400A0FD005
:1025E00090B90868800613D49FED251A1DE000BF3E
:1025F00040F60010C0F23D00704700BF0020704759
:102600009FED1E1A11E000BF9FED1B1A0DE000BFE9
:10261000086849F20002C0F2D032C0F3C10022FAC9
:1026200000F001EE100AB8EE411A086B9FED153A62
:102630006FF35F2002EE100A086BC0F34620B8EE7D
:10264000422A013000EE032A00EE10CAB7EE003A2B
:10265000B8EE400A81EE000A32EE031A20EE010ABB
:1026600001EE100AB8EE411A80EE010ABCEEC00A73
:1026700010EE100A704700BF0024744A20BCBE4B05
:102680000024744C0000003970B3F0B581B00446EA
:10269000007844F20046C007C5F6020626D120782D
:1026A000800753D5306910F03801B06A40D018293E
:1026B00008BF5FEA80703BD0E0683168002800F016
:1026C0001D8121F0190108433060FDF779FF0546AF
:1026D0003068400733D4FDF773FF401B0228F7D959
:1026E000032001B0F0BD00BF01207047306900F049
:1026F0003801B06A102905D018290BD100F0030069
:10270000022807D130688003C9D560680028C6D187
:10271000A2E000BF61683068B1F5A02F80F2CE80E2
:10272000002900F05D81B1F5803F00F07B814BE135
:102730003068400703D5E068002800F08D8070689D
:10274000216920F0FE4040EA016070602078C006F8
:1027500019D5306900F03801B06A082906D0182967
:1027600040F07E8000F00300012879D13068C00578
:1027700002D5E06980286FD1F068216A20F07C5092
:1027800040EA0160F0602078000737D420788006A6
:102790004AD4207840077BD4656A65B3306900F07D
:1027A0003800182840F0EE80012DB16A306B53D00C
:1027B00001F00302A36A9A424ED1C1F30511E26A05
:1027C000914249D10146226B6FF35F21013A914258
:1027D00042D1C0F34622616B01398A423CD1C0F339
:1027E0000642A16B01398A4236D1C0F30660E16B23
:1027F0000139884230D1002001B0F0BD6069002865
:10280000706F69D040F001007067FDF7D9FE054692
:10281000706F8007BAD4FDF7D3FE401B0228F7D9AA
:10282000032001B0F0BD00BFA0690028306800F0AF
:10283000858040F480503060FDF7C2FE054600BF41
:1028400030688004A5D4FDF7BBFE401B0228F7D9F1
:10285000032001B0F0BD00BF012001B0F0BD00BFFA
:10286000E0690028306800F07B8040F08000306034
:10287000FDF7A6FE054600BF3068C0053FF57CAFFA
:10288000FDF79EFE401B0228F6D9032001B0F0BDE3
:10289000D6F8000440F48070C6F80004FDF790FEFE
:1028A000054600BFD6F80004C0053BD4FDF788FEFE
:1028B000401B6428F6D9032001B0F0BD00F0AA80C7
:1028C000B1F5A81F40F0808040F48020306030686F
:1028D00040F48010A4E000BF20F001007067FDF715
:1028E0006FFE0546706F80077FF550AFFDF768FEFD
:1028F000401B0228F6D9032001B0F0BD21F00100F1
:102900003060FDF75DFE0546306840077FF51EAF7D
:10291000FDF756FE401B02284FF00300F4D901B02A
:10292000F0BD00BFA168306F042900F38D8000293D
:1029300000F0A280012900F0C38091E020F48050D3
:102940003060FDF73DFE0546306880047FF521AF1D
:10295000FDF736FE401B02284FF00300F4D9DEE7F6
:1029600020F080003060FDF72BFE05463068C00582
:102970007FF509AFFDF724FE401B02284FF003004E
:10298000F4D9CCE7306820F080703060FDF718FE95
:10299000022D05460CD100BF3068800140F1A480B3
:1029A000FDF70EFE401B02284FF00300F4D9B6E7F6
:1029B000306880017FF51FAFFDF702FE401B022843
:1029C0004FF00300F4D9AAE720F48030306030687B
:1029D00020F480203060306820F4801024E000BFB4
:1029E00020F480303060306820F48010306030682F
:1029F00020F480203060FDF7E3FD05463068800359
:102A00007FF54DAEFDF7DCFD401B64284FF0030061
:102A1000F4D984E740F480203060306820F48010DE
:102A20003060306840F480303060FDF7C9FD054605
:102A3000306880033FF533AEFDF7C2FD401B6428CC
:102A4000F6D9032001B0F0BD052931D0852907D181
:102A500040F004003067306F40F080002EE000BF8F
:102A600020F001003067306F20F004003067306FD5
:102A700020F0800026E000BF20F001003067306FBA
:102A800020F080003067306F20F004003067FDF7E1
:102A900097FD054641F28837306F80077FF57CAEA1
:102AA000FDF78EFD401BB8424FF00300F4D936E726
:102AB00040F004003067306F20F080003067306FE6
:102AC00040F001003067FDF77BFD054641F2883795
:102AD000306F80073FF560AEFDF772FD401BB842D6
:102AE0004FF00300F4D91AE704F12807B06A40F266
:102AF000F33188438ECF0843591E40EA02104FF449
:102B00007E426FF35F21B06202EB47204FF4FE027A
:102B100080B2E36B0844A16B02EB01414FF0FE422F
:102B200001F4FE0102EB0362084402F0FE41084496
:102B30003063F06A4FF6F87120F00100F062706BBC
:102B4000A26C884340EAC2007063F06A216C20F0F6
:102B50000C000843F062F06A616C20F00200084348
:102B6000F062F06A40F48030F062F06A40F40030C5
:102B7000F062F06A40F48020F062F06A40F00100F8
:102B8000F062306840F080703060FDF719FD044657
:102B9000306880013FF52FAEFDF712FD001B0228C3
:102BA0004FF00300F4D9BAE6411E0020B0EB116FDC
:102BB00002D00120704700BF4EF21002F023CEF287
:102BC000000251604EF62351CEF200010B70072136
:102BD000906011607047000090F88010012901D1C9
:102BE000022070472421C0F8841001680A680B682D
:102BF00022F0005223F001030B60002343660A60B9
:102C00002021C0F8841080F8803000207047000038
:102C100090F88020012A01D10220704770B524224B
:102C2000C0F884200268D0F864E0BEF1000FD2F84A
:102C300000C0136823F001031360936823F06063FE
:102C400041EA0301916019D0916844F2C84E93683B
:102C5000C0F6000E5B0F44F2D045C1F34266C0F6E9
:102C600000051EF80340E95C2301B3FBF1F11EF8F7
:102C70000630AE5D1B01B3FBF6F301E00121012339
:102C8000A0F86A102021A0F86830C2F800C0C0F88F
:102C90008410002180F88010002070BD000000002A
:102CA00090F88020012A01D10220704770B52422BB
:102CB000C0F884200268D0F864E0BEF1000FD2F8BA
:102CC00000C0136823F001031360936823F060438E
:102CD00041EA0301916019D0916844F2C84E9368AB
:102CE000C0F6000E5B0F44F2D045C1F34266C0F659
:102CF00000051EF80340E95C2301B3FBF1F11EF867
:102D00000630AE5D1B01B3FBF6F301E001210123A8
:102D1000A0F86A102021A0F86830C2F800C0C0F8FE
:102D20008410002180F88010002070BD0000000099
:102D300010B5A8B10446D0F8840028B9002084F862
:102D40008000204600F028F82420C4F88400206881
:102D5000016821F001010160204600F0D1FD08B1B9
:102D6000012010BDA06A10B1204600F0E1FC2068EF
:102D7000416821F490414160816821F02A0181601D
:102D8000016841F0010101602046BDE8104000F0FB
:102D90003FBD000000000000B0B586B041F2000267
:102DA0000068C4F20102002190420591CDE90311AF
:102DB000CDE9011102D006B0B0BD00BF44F24050D1
:102DC0000024C5F60200C5F6020401AD016941F018
:102DD00010010161016901F0100100910099016881
:102DE00041F001010160016801F0010100910099C9
:102DF000016841F0010101600068294600F001000E
:102E0000009000984FF40070019002200290012081
:102E1000039003200490072005902046FDF7E4FA74
:102E20004FF48060019020462946FDF7DDFA06B098
:102E3000B0BD0000000000002DE9F04182B0044662
:102E4000D0F8840020280DD10F460120002918BF9A
:102E5000002A03D102B0BDE8F08100BF94F88000E1
:102E6000012803D1022002B0BDE8F0811D460120F7
:102E700084F880000020C4F88C002120C4F884006D
:102E80001646FDF79DFBA4F854608046A4F85660F2
:102E9000A168B1F5805F01D12069B8B33E46002733
:102EA000002084F8800008E0206816F8011B816289
:102EB000B4F856000138A4F85600B4F8560088B1AA
:102EC0008021002220464346009500F061FF88B92A
:102ED000002EE9D137F8020B216800266FF35F203E
:102EE0008862E5E74021002220464346009500F035
:102EF0004FFF18B1032002B0BDE8F0812020C4F8D4
:102F00008400002002B0BDE8F08100BF0026C7E7C2
:102F1000FEE700000000000070B586B044F24050AB
:102F20000025C5F602000595CDE90355CDE901550B
:102F3000016840F6000441F0040101600068C5F634
:102F4000020400F0040000900098022100222046B4
:102F50000226FDF72DFB012001A9CDE9020520463F
:102F600001960495FDF740FA06B070BD0000000020
:102F7000FEE7000000000000FEE700000000000087
:102F80002DE9F047026883681768002B27F040534B
:102F900013600DD00B68022B13D0032B1AD14FF402
:102FA000B0744FF4A87C4FF4A4734FF4A07E19E0E2
:102FB00013684F6823F080033B4313600B68022BB8
:102FC000EBD14FF4D0744FF4C87C4FF4C4734FF47A
:102FD000C07E07E04FF490744FF4887C4FF4847304
:102FE0004FF4807ED1E91256354342F80E50CD6A37
:102FF0006DB18D6A155152F80E40CD6A24F47C14DF
:103000004E6B2C430D6B34432C4342F80E40D45886
:103010004D6C24F01F042C43D4508B6B0BB10C6807
:1030200004B3CD68CC6925B352F80E60D1E90487AA
:10303000A4B3002BD1E9089A44D04CF2C000CFF2DF
:10304000FF0030400E6C3043384340EA080040EA4D
:103050000A0040EA090018432843204342F80E00C2
:103060004CE000BFCC6B013C1464CD68002DCC69F2
:10307000DAD1002C4AD052F80E60002BD1E90807B3
:103080004AD04CF2C005CFF2FF053F352E400D6C03
:103090002E4337433843184342E000BF002B47D04C
:1030A0004CF2C0000C6CCFF2FF0000F57C503040B9
:1030B0002043384340EA08001843284342F80E00F2
:1030C0004AE000BF43F63F7326EA03033B4343EA6B
:1030D000080343EA0A0343EA09032B43234342F864
:1030E0000E30C06AB0F1805F08D14869082805D168
:1030F00052F80E0040F00060B0E700BF886842F868
:103100000C00886990640020BDE8F0870821816583
:103110000120BDE8F08700BF26F47C533B431843F1
:10312000204342F80E00886990640020BDE8F087D3
:1031300026F03F033B4343EA08032B4342F80E309B
:10314000C06AB0F1805F07D14869082804D152F8FD
:103150000E0040F00060B1E7886842F80C000020E3
:10316000BDE8F08700000000F0B595B040F21C0506
:1031700044F21704C2F2000500262846C0F2EF040C
:10318000CDE90566CDE903660296FDF781FE45F2BD
:103190000000EE60C5F20020286008201721C5E974
:1031A0000106C5E90E062846296101270221C5E965
:1031B0000576C5E9077669624FF08041C5E90A16D0
:1031C000C5E90C662E64FDF777FE4FF00110049000
:1031D00001A941F28832284601970397FDF7B4FA16
:1031E0004FF4005009904FF080700F900320109022
:1031F0009F20039001A941F2883228460696CDE926
:103200000166CDE9047608960C961196CDE9126612
:103210001496FDF795FD0DF1010141F28832284623
:10322000FDF7E6FF9DF801009DF802109DF80320D0
:10323000090241EA00408118A14207D10EA02146AF
:1032400000F096FF002040B215B0F0BD03A000F0E2
:103250008FFFFF2040B215B0F0BD00BF573235518F
:103260003634204552524F5221212121212020491C
:10327000443A25580D0A0000573235513634204F54
:103280004B2C666C6173682049443A25580D0A003E
:1032900010B596B00024EB2004900120CDE9050480
:1032A0004FF4407009904FF4005002A9CDE90A0490
:1032B0004FF040701090062041F28832CDE913049F
:1032C00040F21C000794C2F200000D94CDE90244C4
:1032D0000F9412941594FDF733FD18B1FB2040B202
:1032E00016B010BD40F21C006946C2F20000CDE9E4
:1032F0000044FDF779FE002818BF6FF0050040B2CA
:1033000016B010BD00000000704700000000000073
:10331000F0B581B044F22C47C5F6020757F8042CEB
:1033200002F00302032A03D1012001B0F0BD00BF67
:10333000054657F82C0C0C4620F0806047F82C0C02
:10334000FDF73EF9064600BF57F82C0C000105D5E5
:10335000FDF736F9801B0228F6D964E057F8040C13
:10336000EE6895E80E0020F47C30012C40EA013034
:10337000A2F101016FF35F214FF47E4202EB432281
:1033800047F8040C92B24FF0FE4302EB01004FF4F9
:10339000FE012A6901EB064101F4FE0103EB026222
:1033A000084402F0FE410844F8603868696920F07A
:1033B000C00040EA010038603868A96920F02000A8
:1033C00040EA0100386038684FF6F87120F01000CC
:1033D00038603869EA6920EA01004FF4001140EAD8
:1033E000C2003861386808BF4FF4801140F0100007
:1033F000002C386008BF4FF400213868084338605B
:1034000057F82C0C40F0806047F82C0CFDF7D8F8EA
:10341000044600BF57F82C0C000107D4FDF7D0F884
:10342000001B0328F6D3032001B0F0BD002001B03B
:10343000F0BD000000000000F0B581B044F22C4760
:10344000C5F6020757F8042C02F00302032A03D141
:10345000012001B0F0BD00BF054657F82C0C0C460A
:1034600020F0805047F82C0CFDF7AAF8064600BF64
:1034700057F82C0C800005D5FDF7A2F8801B022818
:10348000F6D964E057F8040CEE6895E80E0020F0D9
:103490007C70012C40EA0150A2F101016FF35F2121
:1034A0004FF47E4202EB432247F8040C92B24FF0F5
:1034B000FE4302EB01004FF4FE012A6901EB0641D5
:1034C00001F4FE0103EB0262084402F0FE410844ED
:1034D00078613868696920F4406040EA010038602A
:1034E0003868A96920F4007040EA01003860386843
:1034F0004FF6F87120F480703860B869EA6920EA04
:1035000001004FF0807140EAC200B861386808BF1E
:103510004FF4000140F48070002C386008BF4FF475
:10352000800138680843386057F82C0C40F0805010
:1035300047F82C0CFDF744F8044600BF57F82C0C54
:10354000800007D4FDF73CF8001B0328F6D30320C6
:1035500001B0F0BD002001B0F0BD0000000000008F
:103560007047000000000000FDF732B800000000C6
:10357000B0B5CAB044F6180437A84C21C5F6020409
:10358000FCF7E8FE01A8B8210025CDE93555CDE9C5
:103590003355CDE93155CDE92F55FCF7DBFE02203F
:1035A000FDF7EEFE0095206840F440402060206862
:1035B00000F44040009000982068800409D42068FE
:1035C00080045CBF20685FEA804002D420688004E9
:1035D000F2D54FF610400222CFF6FF70215862F369
:1035E00001012150012037904FF4803038900520A0
:1035F000429070200024CDE943020820479037A86C
:10360000CDE94022CDE94522CDE94844FFF73CF819
:1036100020B1EFF3108072B6FEE700BF3F202F907D
:1036200003204FF48061CDE9300440203294CDE98D
:103630003300CDE935102FA80721FEF7E5FD28B1AD
:10364000EFF3108072B600BFFEE700BF4FF00070CE
:1036500001900020139001A8FDF7FEFF20B1EFF3C9
:10366000108072B6FEE700BF4AB0B0BD0000000097
:1036700080B54EF6885C42F2000ECEF2000CC5F228
:10368000002EDCF8001041F47001CCF80010DEF8D8
:10369000001001F00F01022906D8DEF80010032304
:1036A00063F30301CEF8001044F200414EF67F525E
:1036B000C5F60201CEF6F6220B6843F001030B605B
:1036C00000230B61086810400860DEF8000010F06D
:1036D0000C0F06D0DEF80000032262F30300CEF8E0
:1036E000000040F200208B61CB61C0F202200B622F
:1036F00088620020C0F2FF10C86240F28020C0F251
:10370000011008634B638863CB6308644B640868EB
:1037100020F48020086044F200000B66C5F200200F
:1037200043F2D20101604FF000604CF8800C80BD84
:10373000816ACA070CD18A0715D44A071ED40A0722
:1037400027D4CA0630D48A0639D44A0642D454E073
:103750000268D0F82CC0536823F4003343EA0C030A
:1037600053608A07E9D50268D0F830C0536823F463
:10377000803343EA0C0353604A07E0D50268D0F86F
:1037800034C0536823F4802343EA0C0353600A07D0
:10379000D7D50268D0F838C0536823F4004343EA11
:1037A0000C035360CA06CED50268D0F83CC09368BB
:1037B00023F4805343EA0C0393608A06C5D502685C
:1037C000D0F840C0936823F4005343EA0C0393609D
:1037D0004A0612D50268D0F844C0BCF5801F536871
:1037E00023F4801343EA0C03536006D1536823F497
:1037F000C00C836C43EA0C035360090658BF704742
:103800000168C06C4A6822F4002210434860704787
:10381000B0B504460020C4F88C00FCF7D1FE216846
:1038200005460A6812070BD40868400726D42020F2
:10383000C4F8840000216C228823002059E000BFD6
:10384000C8698002F0D4FCF7BBFE2168401BB0F1D0
:10385000007F086828D2400744BFC8695FEA00506B
:10386000EED54FF400600862086820F4D07008605C
:10387000886820F00100886035E000BFC869400218
:10388000D5D400BFFCF79CFE411B2068B1F1007F3E
:10389000016811D2490744BFC1695FEA015117D4D9
:1038A000C0694002EED5C2E720F4D0700860886895
:1038B00020F00100886006E021F4D0710160816889
:1038C00021F001018160032020218822842310E05F
:1038D0004FF400610162016821F4D07101608168D8
:1038E00021F0010181602021C4F8841003208C2282
:1038F00088232025E550A150002184F88010B0BD18
:10390000F0B583B00446006846F6F31640F6004E64
:1039100022696569D4E902130A43E7690168CCF6B4
:10392000FF762A4331401143C5F6000E394301604A
:103930004168704521F4405144F2544C41EA03017E
:103940004160A2694FF2FF431CBF216A0A438168AC
:10395000C1F2FF131940C5F6020C1143816047F60E
:10396000FF32C16AC4F2000221F00F01656A904281
:103970004FF0800341EA0501C16219DD41F2FF7198
:10398000C4F2010188422DDC47F60041C4F2000177
:10399000884257D041F20001C4F20101884239D077
:1039A00041F20041C4F20101884233D056E000BF29
:1039B00044F6FF31C4F20001884237DD44F600418D
:1039C000C4F2000188423DD045F20001C4F200017A
:1039D000884237D047F60001C4F20001884231D056
:1039E0003CE000BF41F60001C4F20101884211D061
:1039F00041F60041C4F2010188420BD070452DD13F
:103A0000DCF8041001F00702062A27D20FF2743105
:103A100022E000BFDCF80010C1F3C202062A1DD26A
:103A200044F29A41C0F6000116E000BF44F20041A2
:103A3000C4F20001884205D044F60001C4F200013E
:103A400088420BD1DCF8001001F00702062A05D2EB
:103A500044F29441C0F600018B181B78704540F683
:103A60000010C0F23D0000F05380B7F5004F40F069
:103A70007B80402B4FF0010100F27B81DFE813F0E7
:103A800042002E017901790136017901790179012C
:103A9000420179017901790179017901790179018D
:103AA0000A017901790179017901790179017901B5
:103AB0007901790179017901790179017901790136
:103AC0004801790179017901790179017901790157
:103AD0007901790179017901790179017901790116
:103AE0007901790179017901790179017901790106
:103AF00079017901790179017901790179017901F6
:103B0000260100BFFEF7D4FC002840F000812DE123
:103B10009A1E01211E2A00F27580DFE812F01F00B4
:103B20002A0187002A012A012A018D002A012A017F
:103B30002A012A012A012A012A0179002A012A01DF
:103B40002A012A012A012A012A012A012A012A011D
:103B50002A012A012A012A012A019500FDF738FCD1
:103B6000002840F0708001E1402B4FF0010100F28D
:103B70000081DFE813F04100B700FE00FE00C10045
:103B8000FE00FE00FE00E300FE00FE00FE00FE0060
:103B9000FE00FE00FE009D00FE00FE00FE00FE0096
:103BA000FE00FE00FE00FE00FE00FE00FE00FE0025
:103BB000FE00FE00FE00E900FE00FE00FE00FE002A
:103BC000FE00FE00FE00FE00FE00FE00FE00FE0005
:103BD000FE00FE00FE00FE00FE00FE00FE00FE00F5
:103BE000FE00FE00FE00FE00FE00FE00FE00FE00E5
:103BF000FE00FE00FE00AF00FEF75AFC002840F079
:103C0000A280B3E0402B40F0B4804FF400401BE0B2
:103C10005CF8540C800649F20000C0F2D03013D595
:103C20005CF8541CC1F3C101C8400DE06846FDF7C3
:103C3000E3FB019838B999E06846FDF775FC0198F7
:103C4000002800F09380656A44F2B0416268C0F6D3
:103C5000000131F81510B0FBF1F002EB420188428F
:103C60004FF00101C0F085801303984200F281807B
:103C7000010E0023000210EB520041F10001FCF79D
:103C800031FB4FF60052A0F54071C0F20F02914295
:103C90006AD36DE05CF8540C800649F20000C0F273
:103CA000D03035D55CF8541CC1F3C101C8402FE0B9
:103CB0005CF8540C800649F20000C0F2D03043D5C5
:103CC0005CF8541CC1F3C101C8403DE04FF4004012
:103CD0001EE000BF4FF4004036E000BFFEF718FCC6
:103CE000A8B943E0FEF714FC68BB3FE06846FDF767
:103CF00083FB019858B939E06846FDF77DFB0198D0
:103D000008BB33E06846FDF70FFC019870B3656AA5
:103D100044F2B041C0F6000131F81510B0FBF1F0EB
:103D200061684A0802EB4000B0FBF1F04FF6F07119
:103D300001401DD0C0F34200084315E06846FDF77E
:103D4000F3FB019890B1656A44F2B0416268C0F635
:103D5000000131F81510B0FBF1F000EB5200B0FBA0
:103D6000F2F080B2102803D32168C860002100E07F
:103D700001214FF00110A0660020C4E91C00084694
:103D800003B0F0BD02040810204000000000000055
:103D90002DE9F041044600680D46C7693940491BCA
:103DA000B1FA81F14909914257D1DDF81880B8F193
:103DB000000F25D0164618F1010137D1C1692940FD
:103DC000491BB1FA81F14909B14246D1C169294083
:103DD000491BB1FA81F14909B14201BFC1692940CA
:103DE000491BB1FA81F104BF4909B14235D1C1691A
:103DF0002940491BB1FA81F14909B142DED02CE0DA
:103E0000FCF7DEFB2068016821F4D0710160816855
:103E100021F00101816088208421202262502250FB
:103E2000002084F880000320BDE8F0811F4600BF19
:103E3000FCF7C6FBC01B4045E4D820680168490771
:103E400044BFC1695FEA01510AD4C0692840401BE0
:103E5000B0FA80F04009B042EAD00020BDE8F0811D
:103E60004FF400610162016821F4D0710160816842
:103E700021F0010181602020C4F884008C20882179
:103E8000CBE700000000000010B540F27C0441F2D6
:103E90000000C2F20004C4F201000C2120604FF4C3
:103EA000E13060600020C4E902002061C4E905102F
:103EB000C4E90700C4E909002046FEF739FF0021E4
:103EC0002046FEF7EDFE00212046FEF7A1FE20462B
:103ED000BDE81040FEF780BEFEE7000000000000D5
:103EE00080B582B0019040F27C00C2F2000001A9CE
:103EF00001226423FEF7A0FF019802B080BD0000FC
:103F000082B04EF61454CEF200042068800312D41E
:103F1000BFF34F8FBFF36F8F0020C4F83C02BFF395
:103F20004F8FBFF36F8F206840F400302060BFF3E5
:103F30004F8FBFF36F8F2068C0035BD400202067D2
:103F4000BFF34F8FE16E0123CA0843F6E07AC1F355
:103F5000C906C1F34E30A6F1020E03EBD101731E68
:103F60004FEA827B01F003054FEA837C4FEA8E71B2
:103F70000191F11E009103E00028A0F101002FD073
:103F80000AEA401731469DB1012D4BEA0701C4F8FA
:103F90004C1219460CD0022D4CEA0701C4F84C1201
:103FA000714605D001993943C4F84C12009900BFFD
:103FB000032EE1D347EA8177013107F1404287F0D0
:103FC000004807F1804900BF0439C4F84C72C4F8B6
:103FD0004C22C4F84C82C4F84C92F5D1CCE700BF17
:103FE000BFF34F8F206840F480302060BFF34F8FC5
:103FF000BFF36F8FFCF7FCFAFFF7BAFAFEF78CFFFE
:10400000FFF742FF47A000F033FAFFF7ADF8FFF7E4
:104010003FF9BFF34F8FBFF36F8F2068012320F468
:10402000003020600020C4F83C02BFF34F8FBFF384
:104030006F8F206743F6E07ABFF34F8F206820F43C
:1040400080302060BFF34F8FE16ECA08C1F3C9060C
:10405000C1F34E30A6F1020E03EBD101731E4FEAFD
:10406000827B01F003054FEA837C4FEA8E71019158
:10407000F11E009104E000BF0028A0F101002FD044
:104080000AEA401731469DB1012D4BEA0701C4F8F9
:10409000601219460CD0022D4CEA0701C4F86012D8
:1040A000714605D001993943C4F86012009900BFE8
:1040B000032EE1D347EA8177013107F1404287F0CF
:1040C000004807F1804900BF0439C4F86072C4F8A1
:1040D0006022C4F86082C4F86092F5D1CCE700BFDA
:1040E0004EF210000021CEF2000040F21804BFF39F
:1040F0004F8FBFF36F8F0160C2F200044160816097
:104100000420C9F200004FF01041006820600868E8
:1041100080F308880EA000F0ABF92068804700BF4C
:10412000FEE700BF0D0A2A2A2A2A2A2A2A2A2A2A30
:104130002A2A2A2A2A2A2A2A2A2A2A2A2A2A2A2ADF
:104140002A2A2A2A2A2A2A2A2A2A2A2A2A0D000040
:10415000CCF8D7AAB5BD573235513634D4CBD0D0F0
:10416000D3C3BBA7B3CCD0F23E3E3E0D0A0D000038
:104170000FB4054B10B503A9044A029800F018F8D3
:1041800010BC5DF814FB0000E13E000800000020B8
:1041900002E008C8121F08C1002AFAD17047704710
:1041A000002001E001C1121F002AFBD1704700006E
:1041B0002DE9FF4F8DB09B460F460446002606E0D2
:1041C00025280BD05A460F999047641C761C2078FE
:1041D0000028F5D111B03046BDE8F08F0025A84683
:1041E0000122984900E0054314F8013F203B02FA00
:1041F00003F00842F7D120782E2817D114F8010FC8
:1042000045F004052A280ED06FF02F022078A0F187
:10421000300109290AD808EB880102EB410100EBC3
:104220000108641CF2E757F8048B641C20786C28A2
:104230000DD004DC4C2812D06A2811D104E0742877
:104240000DD07A280CD10AE045F4001507E061781A
:1042500045F48015814202D1641C05F58015641C6B
:104260002278692A45D008DC002AB3D0582A69D0C0
:10427000632A10D0642A08D13BE0702A67D0732AE1
:1042800013D0752A5CD0782A5CD010465A460F9914
:104290009047761CD3E017F8040B8DF8000000203F
:1042A0008DF80100E946012003E057F8049B4FF028
:1042B000FF3069074FF0000501D40AE06D1C454549
:1042C0000DDA8542FADB19F805100029F6D106E06F
:1042D0006D1C8542FCDB19F805100029F8D12E442D
:1042E00004E019F8010B5A460F9990476D1EF8D259
:1042F000A5E00A200021CDE90801C5F302500228FB
:104300000DD001CFC117031E71F100030DDA4FF07C
:10431000000CD0EB0C006CEB01012D2308E0FF1D1D
:1043200027F00707F7E80201EDE72B0504D52B235B
:104330008DF8283001233BE0EB0739D02023F7E745
:104340000A2000E010200021CDE9080107E010203C
:10435000002145F00405CDE908014FF00808C5F338
:10436000025002280FD001CF00214FF0000A2B0786
:104370001FD5702A0DD0DDE908C38CF0100C5CEA63
:10438000030C0CD015E0FF1D27F00707F7E802012A
:10439000EBE740228DF828204FF0010A0BE050EAAD
:1043A000010306D030238DF828308DF82920022310
:1043B0009A46582A04D024A20DF120090B9209E054
:1043C00026A2F9E7DDE90823FBF78CFF0B9B9B5C3A
:1043D00009F8013D50EA0102F4D1ADEB09002030AB
:1043E0000890680701D44FF001080899884502DD5C
:1043F000A8EB010000E000208046002506E00AA8A6
:104400005A46405D0F9990476D1C761C5545F6DB6A
:1044100004E030205A460F999047761CB8F100010D
:10442000A8F10108F5DC05E019F8010B5A460F99CF
:104430009047761C0899481E08900029F4DC641CFB
:10444000C5E60000092801003031323334353637F3
:1044500038396162636465660000000030313233D0
:104460003435363738394142434445460000000070
:1044700010B5044601E0FFF733FD14F8010B0449C1
:104480000028F8D1BDE810400A20FFF729BD000040
:104490000000002000040810204001040810204003
:1044A00000000000010203040102030406070809DA
:1044B000010002000400060008000A000C001000C1
:1044C00020004000800000010101010307010000FD
:1044D0000804020408010101F8440008000000205B
:1044E0001800000090410008104500081800002046
:1044F000F8040000A04100080000000001000000D6
:10450000100000000090D0030090D00300000000D5
:04000005080002AD40
:00000001FF
